{
  "contractName": "LiquidSwapFactory",
  "abi": [
    {
      "inputs": [
        {
          "internalType": "address",
          "name": "_feeToSetter",
          "type": "address"
        }
      ],
      "stateMutability": "nonpayable",
      "type": "constructor"
    },
    {
      "anonymous": false,
      "inputs": [
        {
          "indexed": true,
          "internalType": "address",
          "name": "token0",
          "type": "address"
        },
        {
          "indexed": true,
          "internalType": "address",
          "name": "token1",
          "type": "address"
        },
        {
          "indexed": false,
          "internalType": "address",
          "name": "pair",
          "type": "address"
        },
        {
          "indexed": false,
          "internalType": "uint256",
          "name": "",
          "type": "uint256"
        }
      ],
      "name": "PairCreated",
      "type": "event"
    },
    {
      "inputs": [
        {
          "internalType": "uint256",
          "name": "",
          "type": "uint256"
        }
      ],
      "name": "allPairs",
      "outputs": [
        {
          "internalType": "address",
          "name": "",
          "type": "address"
        }
      ],
      "stateMutability": "view",
      "type": "function"
    },
    {
      "inputs": [],
      "name": "feeTo",
      "outputs": [
        {
          "internalType": "address",
          "name": "",
          "type": "address"
        }
      ],
      "stateMutability": "view",
      "type": "function"
    },
    {
      "inputs": [],
      "name": "feeToSetter",
      "outputs": [
        {
          "internalType": "address",
          "name": "",
          "type": "address"
        }
      ],
      "stateMutability": "view",
      "type": "function"
    },
    {
      "inputs": [
        {
          "internalType": "address",
          "name": "",
          "type": "address"
        },
        {
          "internalType": "address",
          "name": "",
          "type": "address"
        }
      ],
      "name": "getPair",
      "outputs": [
        {
          "internalType": "address",
          "name": "",
          "type": "address"
        }
      ],
      "stateMutability": "view",
      "type": "function"
    },
    {
      "inputs": [],
      "name": "migrator",
      "outputs": [
        {
          "internalType": "address",
          "name": "",
          "type": "address"
        }
      ],
      "stateMutability": "view",
      "type": "function"
    },
    {
      "inputs": [],
      "name": "allPairsLength",
      "outputs": [
        {
          "internalType": "uint256",
          "name": "",
          "type": "uint256"
        }
      ],
      "stateMutability": "view",
      "type": "function"
    },
    {
      "inputs": [],
      "name": "pairCodeHash",
      "outputs": [
        {
          "internalType": "bytes32",
          "name": "",
          "type": "bytes32"
        }
      ],
      "stateMutability": "pure",
      "type": "function"
    },
    {
      "inputs": [
        {
          "internalType": "address",
          "name": "tokenA",
          "type": "address"
        },
        {
          "internalType": "address",
          "name": "tokenB",
          "type": "address"
        }
      ],
      "name": "createPair",
      "outputs": [
        {
          "internalType": "address",
          "name": "pair",
          "type": "address"
        }
      ],
      "stateMutability": "nonpayable",
      "type": "function"
    },
    {
      "inputs": [
        {
          "internalType": "address",
          "name": "_feeTo",
          "type": "address"
        }
      ],
      "name": "setFeeTo",
      "outputs": [],
      "stateMutability": "nonpayable",
      "type": "function"
    },
    {
      "inputs": [
        {
          "internalType": "address",
          "name": "_migrator",
          "type": "address"
        }
      ],
      "name": "setMigrator",
      "outputs": [],
      "stateMutability": "nonpayable",
      "type": "function"
    },
    {
      "inputs": [
        {
          "internalType": "address",
          "name": "_feeToSetter",
          "type": "address"
        }
      ],
      "name": "setFeeToSetter",
      "outputs": [],
      "stateMutability": "nonpayable",
      "type": "function"
    }
  ],
  "bytecode": "0x608060405234801561001057600080fd5b50604051614b36380380614b368339818101604052602081101561003357600080fd5b5051600180546001600160a01b0319166001600160a01b03909216919091179055614ad3806100636000396000f3fe60806040523480156200001157600080fd5b5060043610620000b85760003560e01c80637cd07e47116200007b5780637cd07e4714620001545780639aab9248146200015e578063a2e74af61462000168578063c9c653961462000191578063e6a4390514620001c2578063f46901ed14620001f357620000b8565b8063017e7e5814620000bd578063094b741514620000e35780631e3dd18b14620000ed57806323cf3118146200010d578063574f2ba31462000138575b600080fd5b620000c76200021c565b604080516001600160a01b039092168252519081900360200190f35b620000c76200022b565b620000c7600480360360208110156200010557600080fd5b50356200023a565b62000136600480360360208110156200012557600080fd5b50356001600160a01b031662000262565b005b62000142620002dc565b60408051918252519081900360200190f35b620000c7620002e2565b62000142620002f1565b62000136600480360360208110156200018057600080fd5b50356001600160a01b031662000325565b620000c760048036036040811015620001a957600080fd5b506001600160a01b03813581169160200135166200039f565b620000c760048036036040811015620001da57600080fd5b506001600160a01b0381358116916020013516620006da565b62000136600480360360208110156200020b57600080fd5b50356001600160a01b031662000700565b6000546001600160a01b031681565b6001546001600160a01b031681565b600481815481106200024857fe5b6000918252602090912001546001600160a01b0316905081565b6001546001600160a01b03163314620002ba576040805162461bcd60e51b81526020600482015260156024820152742634b8bab4b229bbb0b81d102327a92124a22222a760591b604482015290519081900360640190fd5b600280546001600160a01b0319166001600160a01b0392909216919091179055565b60045490565b6002546001600160a01b031681565b60006040518060200162000305906200077a565b6020820181038252601f19601f8201166040525080519060200120905090565b6001546001600160a01b031633146200037d576040805162461bcd60e51b81526020600482015260156024820152742634b8bab4b229bbb0b81d102327a92124a22222a760591b604482015290519081900360640190fd5b600180546001600160a01b0319166001600160a01b0392909216919091179055565b6000816001600160a01b0316836001600160a01b0316141562000409576040805162461bcd60e51b815260206004820152601f60248201527f4c6971756964537761703a204944454e544943414c5f41444452455353455300604482015290519081900360640190fd5b600080836001600160a01b0316856001600160a01b0316106200042e57838562000431565b84845b90925090506001600160a01b03821662000492576040805162461bcd60e51b815260206004820152601860248201527f4c6971756964537761703a205a45524f5f414444524553530000000000000000604482015290519081900360640190fd5b6001600160a01b038281166000908152600360209081526040808320858516845290915290205416156200050d576040805162461bcd60e51b815260206004820152601760248201527f4c6971756964537761703a20504149525f455849535453000000000000000000604482015290519081900360640190fd5b60606040518060200162000521906200077a565b6020820181038252601f19601f8201166040525090506000838360405160200180836001600160a01b031660601b8152601401826001600160a01b031660601b815260140192505050604051602081830303815290604052805190602001209050808251602084016000f59450846001600160a01b031663485cc95585856040518363ffffffff1660e01b815260040180836001600160a01b03168152602001826001600160a01b0316815260200192505050600060405180830381600087803b158015620005ef57600080fd5b505af115801562000604573d6000803e3d6000fd5b505050506001600160a01b0384811660008181526003602081815260408084208987168086529083528185208054978d166001600160a01b031998891681179091559383528185208686528352818520805488168517905560048054600181018255958190527f8a35acfbc15ff81a39ae7d344fd709f28e8600b4aa8c65c6b64bfe7fe36bd19b90950180549097168417909655925483519283529082015281517f0d3648bd0f6ba80134a33ba9275ac585d9d315f0ad8355cddefde31afa28d0e9929181900390910190a35050505092915050565b60036020908152600092835260408084209091529082529020546001600160a01b031681565b6001546001600160a01b0316331462000758576040805162461bcd60e51b81526020600482015260156024820152742634b8bab4b229bbb0b81d102327a92124a22222a760591b604482015290519081900360640190fd5b600080546001600160a01b0319166001600160a01b0392909216919091179055565b61431580620007898339019056fe608060405260016011553480156200001657600080fd5b506040516200431538038062004315833981810160405260608110156200003c57600080fd5b81019080805160405193929190846401000000008211156200005d57600080fd5b9083019060208201858111156200007357600080fd5b82516401000000008111828201881017156200008e57600080fd5b82525081516020918201929091019080838360005b83811015620000bd578181015183820152602001620000a3565b50505050905090810190601f168015620000eb5780820380516001836020036101000a031916815260200191505b50604052602001805160405193929190846401000000008211156200010f57600080fd5b9083019060208201858111156200012557600080fd5b82516401000000008111828201881017156200014057600080fd5b82525081516020918201929091019080838360005b838110156200016f57818101518382015260200162000155565b50505050905090810190601f1680156200019d5780820380516001836020036101000a031916815260200191505b5060405260200180516040519392919084640100000000821115620001c157600080fd5b908301906020820185811115620001d757600080fd5b8251866020820283011164010000000082111715620001f557600080fd5b82525081516020918201928201910280838360005b83811015620002245781810151838201526020016200020a565b5050505090500160405250505082828282600290805190602001906200024c9291906200048e565b508151620002629060039060208501906200048e565b5080516200027890600490602084019062000513565b5060005b600454811015620002d857600160056000600484815481106200029b57fe5b6000918252602080832091909101546001600160a01b031683528201929092526040019020805460ff19169115159190911790556001016200027c565b50604080516329965a1d60e01b815230600482018190527fac7fbab5f54a3ca8194167523c6753bfeb96a445279294b6125b68cce2177054602483015260448201529051731820a4b7618bde71dce8cdc73aab6c95905fad24916329965a1d91606480830192600092919082900301818387803b1580156200035957600080fd5b505af11580156200036e573d6000803e3d6000fd5b5050604080516329965a1d60e01b815230600482018190527faea199e31a596269b42cdafd93407f14436db6e4cad65417994c2eb37381e05a602483015260448201529051731820a4b7618bde71dce8cdc73aab6c95905fad2493506329965a1d9250606480830192600092919082900301818387803b158015620003f257600080fd5b505af115801562000407573d6000803e3d6000fd5b505050505050506000620004206200048a60201b60201c565b600980546001600160a01b0319166001600160a01b038316908117909155604051919250906000907f8be0079c531659141344cd1fd0a4f28419497f9722a3daafe3b4186f6b6457e0908290a35050600a80546001600160a01b0319163317905550620005b19050565b3390565b828054600181600116156101000203166002900490600052602060002090601f016020900481019282601f10620004d157805160ff191683800117855562000501565b8280016001018555821562000501579182015b8281111562000501578251825591602001919060010190620004e4565b506200050f92915062000579565b5090565b8280548282559060005260206000209081019282156200056b579160200282015b828111156200056b57825182546001600160a01b0319166001600160a01b0390911617825560209092019160019091019062000534565b506200050f92915062000590565b5b808211156200050f57600081556001016200057a565b5b808211156200050f5780546001600160a01b031916815560010162000591565b613d5480620005c16000396000f3fe608060405234801561001057600080fd5b50600436106102115760003560e01c80637464fc3d11610125578063c45a0155116100ad578063f2fde38b1161007c578063f2fde38b14610860578063fad8b32a14610886578063fc673c4f146108ac578063fe9d9303146109ea578063fff6cae914610a9557610211565b8063c45a0155146107f4578063d21220a7146107fc578063d95b637114610804578063dd62ed3e1461083257610211565b806395d89b41116100f457806395d89b41146106d95780639bd9bbc6146106e1578063a9059cbb1461079a578063ba9a7a56146107c6578063bc25cf77146107ce57610211565b80637464fc3d1461066457806389afcb441461066c5780638da5cb5b146106ab578063959b8c3f146106b357610211565b8063313ce567116101a85780635a3d5493116101775780635a3d5493146104bf57806362ad1b83146104c75780636a6278421461061057806370a0823114610636578063715018a61461065c57610211565b8063313ce56714610463578063485cc95514610481578063556f0dc7146104af5780635909c0d5146104b757610211565b8063095ea7b3116101e4578063095ea7b3146103af5780630dfe1681146103ef57806318160ddd1461041357806323b872dd1461042d57610211565b8063022c0d9f1461021657806306e48538146102a257806306fdde03146102fa5780630902f1ac14610377575b600080fd5b6102a06004803603608081101561022c57600080fd5b8135916020810135916001600160a01b036040830135169190810190608081016060820135600160201b81111561026257600080fd5b82018360208201111561027457600080fd5b803590602001918460018302840111600160201b8311171561029557600080fd5b509092509050610a9d565b005b6102aa610fa8565b60408051602080825283518183015283519192839290830191858101910280838360005b838110156102e65781810151838201526020016102ce565b505050509050019250505060405180910390f35b61030261100a565b6040805160208082528351818301528351919283929083019185019080838360005b8381101561033c578181015183820152602001610324565b50505050905090810190601f1680156103695780820380516001836020036101000a031916815260200191505b509250505060405180910390f35b61037f611094565b604080516001600160701b03948516815292909316602083015263ffffffff168183015290519081900360600190f35b6103db600480360360408110156103c557600080fd5b506001600160a01b0381351690602001356110be565b604080519115158252519081900360200190f35b6103f76110e2565b604080516001600160a01b039092168252519081900360200190f35b61041b6110f1565b60408051918252519081900360200190f35b6103db6004803603606081101561044357600080fd5b506001600160a01b038135811691602081013590911690604001356110f7565b61046b611274565b6040805160ff9092168252519081900360200190f35b6102a06004803603604081101561049757600080fd5b506001600160a01b0381358116916020013516611279565b61041b6112fe565b61041b611303565b61041b611309565b6102a0600480360360a08110156104dd57600080fd5b6001600160a01b03823581169260208101359091169160408201359190810190608081016060820135600160201b81111561051757600080fd5b82018360208201111561052957600080fd5b803590602001918460018302840111600160201b8311171561054a57600080fd5b91908080601f0160208091040260200160405190810160405280939291908181526020018383808284376000920191909152509295949360208101935035915050600160201b81111561059c57600080fd5b8201836020820111156105ae57600080fd5b803590602001918460018302840111600160201b831117156105cf57600080fd5b91908080601f01602080910402602001604051908101604052809392919081815260200183838082843760009201919091525092955061130f945050505050565b61041b6004803603602081101561062657600080fd5b50356001600160a01b0316611371565b61041b6004803603602081101561064c57600080fd5b50356001600160a01b0316611836565b6102a0611855565b61041b611909565b6106926004803603602081101561068257600080fd5b50356001600160a01b031661190f565b6040805192835260208301919091528051918290030190f35b6103f7611cca565b6102a0600480360360208110156106c957600080fd5b50356001600160a01b0316611cd9565b610302611e25565b6102a0600480360360608110156106f757600080fd5b6001600160a01b0382351691602081013591810190606081016040820135600160201b81111561072657600080fd5b82018360208201111561073857600080fd5b803590602001918460018302840111600160201b8311171561075957600080fd5b91908080601f016020809104026020016040519081016040528093929190818152602001838380828437600092019190915250929550611e86945050505050565b6103db600480360360408110156107b057600080fd5b506001600160a01b038135169060200135611eb0565b61041b611f89565b6102a0600480360360208110156107e457600080fd5b50356001600160a01b0316611f8f565b6103f7612102565b6103f7612111565b6103db6004803603604081101561081a57600080fd5b506001600160a01b0381358116916020013516612120565b61041b6004803603604081101561084857600080fd5b506001600160a01b03813581169160200135166121c2565b6102a06004803603602081101561087657600080fd5b50356001600160a01b03166121ed565b6102a06004803603602081101561089c57600080fd5b50356001600160a01b03166122f8565b6102a0600480360360808110156108c257600080fd5b6001600160a01b0382351691602081013591810190606081016040820135600160201b8111156108f157600080fd5b82018360208201111561090357600080fd5b803590602001918460018302840111600160201b8311171561092457600080fd5b91908080601f0160208091040260200160405190810160405280939291908181526020018383808284376000920191909152509295949360208101935035915050600160201b81111561097657600080fd5b82018360208201111561098857600080fd5b803590602001918460018302840111600160201b831117156109a957600080fd5b91908080601f016020809104026020016040519081016040528093929190818152602001838380828437600092019190915250929550612444945050505050565b6102a060048036036040811015610a0057600080fd5b81359190810190604081016020820135600160201b811115610a2157600080fd5b820183602082011115610a3357600080fd5b803590602001918460018302840111600160201b83111715610a5457600080fd5b91908080601f0160208091040260200160405190810160405280939291908181526020018383808284376000920191909152509295506124a2945050505050565b6102a06124c8565b601154600114610ae9576040805162461bcd60e51b8152602060048201526012602482015271131a5c5d5a5914ddd85c0e881313d0d2d15160721b604482015290519081900360640190fd5b600060115584151580610afc5750600084115b610b375760405162461bcd60e51b8152600401808060200182810382526026815260200180613a596026913960400191505060405180910390fd5b600080610b42611094565b5091509150816001600160701b031687108015610b675750806001600160701b031686105b610ba25760405162461bcd60e51b8152600401808060200182810382526022815260200180613c186022913960400191505060405180910390fd5b600b54600c5460009182916001600160a01b03918216919081169089168214801590610be05750806001600160a01b0316896001600160a01b031614155b610c2a576040805162461bcd60e51b81526020600482015260166024820152754c6971756964537761703a20494e56414c49445f544f60501b604482015290519081900360640190fd5b8a15610c3b57610c3b828a8d61262b565b8915610c4c57610c4c818a8c61262b565b8615610cfe57886001600160a01b031663c8a88856338d8d8c8c6040518663ffffffff1660e01b815260040180866001600160a01b03168152602001858152602001848152602001806020018281038252848482818152602001925080828437600081840152601f19601f8201169050808301925050509650505050505050600060405180830381600087803b158015610ce557600080fd5b505af1158015610cf9573d6000803e3d6000fd5b505050505b604080516370a0823160e01b815230600482015290516001600160a01b038416916370a08231916024808301926020929190829003018186803b158015610d4457600080fd5b505afa158015610d58573d6000803e3d6000fd5b505050506040513d6020811015610d6e57600080fd5b5051604080516370a0823160e01b815230600482015290519195506001600160a01b038316916370a0823191602480820192602092909190829003018186803b158015610dba57600080fd5b505afa158015610dce573d6000803e3d6000fd5b505050506040513d6020811015610de457600080fd5b5051925060009150506001600160701b0385168a90038311610e07576000610e16565b89856001600160701b03160383035b9050600089856001600160701b0316038311610e33576000610e42565b89856001600160701b03160383035b90506000821180610e535750600081115b610e8e5760405162461bcd60e51b8152600401808060200182810382526025815260200180613b856025913960400191505060405180910390fd5b6000610eb0610e9e8460036127be565b610eaa876103e86127be565b90612817565b90506000610ec2610e9e8460036127be565b9050610ee7620f4240610ee16001600160701b038b8116908b166127be565b906127be565b610ef183836127be565b1015610f34576040805162461bcd60e51b815260206004820152600d60248201526c4c6971756964537761703a204b60981b604482015290519081900360640190fd5b5050610f4284848888612859565b60408051838152602081018390528082018d9052606081018c905290516001600160a01b038b169133917fd78ad95fa46c994b6551d0da85fc275fe613ce37657fb8d5e3d130840159d8229181900360800190a350506001601155505050505050505050565b6060600480548060200260200160405190810160405280929190818152602001828054801561100057602002820191906000526020600020905b81546001600160a01b03168152600190910190602001808311610fe2575b5050505050905090565b60028054604080516020601f60001961010060018716150201909416859004938401819004810282018101909252828152606093909290918301828280156110005780601f1061106857610100808354040283529160200191611000565b820191906000526020600020905b81548152906001019060200180831161107657509395945050505050565b600d546001600160701b0380821692600160701b830490911691600160e01b900463ffffffff1690565b6000806110c9612a19565b90506110d6818585612a1d565b60019150505b92915050565b600b546001600160a01b031681565b60015490565b60006001600160a01b03831661113e5760405162461bcd60e51b8152600401808060200182810382526024815260200180613c3a6024913960400191505060405180910390fd5b6001600160a01b0384166111835760405162461bcd60e51b8152600401808060200182810382526026815260200180613cb36026913960400191505060405180910390fd5b600061118d612a19565b90506111bb818686866040518060200160405280600081525060405180602001604052806000815250612b09565b6111e7818686866040518060200160405280600081525060405180602001604052806000815250612d36565b61123b858261123686604051806060016040528060298152602001613c8a602991396001600160a01b03808c166000908152600860209081526040808320938b16835292905220549190612f4f565b612a1d565b6112698186868660405180602001604052806000815250604051806020016040528060008152506000612fe6565b506001949350505050565b601290565b600a546001600160a01b031633146112d0576040805162461bcd60e51b81526020600482015260156024820152742634b8bab4b229bbb0b81d102327a92124a22222a760591b604482015290519081900360640190fd5b600b80546001600160a01b039384166001600160a01b031991821617909155600c8054929093169116179055565b600190565b600e5481565b600f5481565b61132061131a612a19565b86612120565b61135b5760405162461bcd60e51b815260040180806020018281038252602c815260200180613c5e602c913960400191505060405180910390fd5b61136a8585858585600161326b565b5050505050565b60006011546001146113bf576040805162461bcd60e51b8152602060048201526012602482015271131a5c5d5a5914ddd85c0e881313d0d2d15160721b604482015290519081900360640190fd5b60006011819055806113cf611094565b50600b54604080516370a0823160e01b815230600482015290519395509193506000926001600160a01b03909116916370a08231916024808301926020929190829003018186803b15801561142357600080fd5b505afa158015611437573d6000803e3d6000fd5b505050506040513d602081101561144d57600080fd5b5051600c54604080516370a0823160e01b815230600482015290519293506000926001600160a01b03909216916370a0823191602480820192602092909190829003018186803b1580156114a057600080fd5b505afa1580156114b4573d6000803e3d6000fd5b505050506040513d60208110156114ca57600080fd5b5051905060006114e3836001600160701b038716612817565b905060006114fa836001600160701b038716612817565b905060006115088787613342565b905060006115146110f1565b90508061170757600a5460408051637cd07e4760e01b815290516000926001600160a01b031691637cd07e47916004808301926020929190829003018186803b15801561156057600080fd5b505afa158015611574573d6000803e3d6000fd5b505050506040513d602081101561158a57600080fd5b50519050336001600160a01b038216141561166557806001600160a01b03166340dc0e376040518163ffffffff1660e01b815260040160206040518083038186803b1580156115d857600080fd5b505afa1580156115ec573d6000803e3d6000fd5b505050506040513d602081101561160257600080fd5b50519950891580159061161757506000198a14155b611660576040805162461bcd60e51b81526020600482015260156024820152744261642064657369726564206c697175696469747960581b604482015290519081900360640190fd5b611701565b6001600160a01b038116156116ba576040805162461bcd60e51b815260206004820152601660248201527526bab9ba103737ba103430bb329036b4b3b930ba37b960511b604482015290519081900360640190fd5b6116d26103e8610eaa6116cd88886127be565b6134a1565b995061170160006103e860405180602001604052806000815250604051806020016040528060008152506134f2565b5061174a565b6117476001600160701b03891661171e86846127be565b8161172557fe5b046001600160701b03891661173a86856127be565b8161174157fe5b0461372a565b98505b600089116117895760405162461bcd60e51b8152600401808060200182810382526029815260200180613acc6029913960400191505060405180910390fd5b6117b38a8a60405180602001604052806000815250604051806020016040528060008152506134f2565b6117bf86868a8a612859565b81156117e957600d546117e5906001600160701b0380821691600160701b9004166127be565b6010555b6040805185815260208101859052815133927f4c209b5fc8ad50758f13e2e1088ba56a560dff690a1c6fef26394f4c03821c4f928290030190a25050600160115550949695505050505050565b6001600160a01b0381166000908152602081905260409020545b919050565b61185d612a19565b6009546001600160a01b039081169116146118bf576040805162461bcd60e51b815260206004820181905260248201527f4f776e61626c653a2063616c6c6572206973206e6f7420746865206f776e6572604482015290519081900360640190fd5b6009546040516000916001600160a01b0316907f8be0079c531659141344cd1fd0a4f28419497f9722a3daafe3b4186f6b6457e0908390a3600980546001600160a01b0319169055565b60105481565b60008060115460011461195e576040805162461bcd60e51b8152602060048201526012602482015271131a5c5d5a5914ddd85c0e881313d0d2d15160721b604482015290519081900360640190fd5b600060118190558061196e611094565b50600b54600c54604080516370a0823160e01b815230600482015290519496509294506001600160a01b039182169391169160009184916370a08231916024808301926020929190829003018186803b1580156119ca57600080fd5b505afa1580156119de573d6000803e3d6000fd5b505050506040513d60208110156119f457600080fd5b5051604080516370a0823160e01b815230600482015290519192506000916001600160a01b038516916370a08231916024808301926020929190829003018186803b158015611a4257600080fd5b505afa158015611a56573d6000803e3d6000fd5b505050506040513d6020811015611a6c57600080fd5b505190506000611a7b30611836565b90506000611a898888613342565b90506000611a956110f1565b905080611aa284876127be565b81611aa957fe5b049a5080611ab784866127be565b81611abe57fe5b04995060008b118015611ad1575060008a115b611b0c5760405162461bcd60e51b8152600401808060200182810382526029815260200180613af56029913960400191505060405180910390fd5b611b3630846040518060200160405280600081525060405180602001604052806000815250613740565b611b41878d8d61262b565b611b4c868d8c61262b565b604080516370a0823160e01b815230600482015290516001600160a01b038916916370a08231916024808301926020929190829003018186803b158015611b9257600080fd5b505afa158015611ba6573d6000803e3d6000fd5b505050506040513d6020811015611bbc57600080fd5b5051604080516370a0823160e01b815230600482015290519196506001600160a01b038816916370a0823191602480820192602092909190829003018186803b158015611c0857600080fd5b505afa158015611c1c573d6000803e3d6000fd5b505050506040513d6020811015611c3257600080fd5b50519350611c4285858b8b612859565b8115611c6c57600d54611c68906001600160701b0380821691600160701b9004166127be565b6010555b604080518c8152602081018c905281516001600160a01b038f169233927fdccd412f0b1252819cb1fd330b93224ca42612892bb3f4f789976e6d81936496929081900390910190a35050505050505050506001601181905550915091565b6009546001600160a01b031690565b806001600160a01b0316611ceb612a19565b6001600160a01b03161415611d315760405162461bcd60e51b8152600401808060200182810382526024815260200180613b406024913960400191505060405180910390fd5b6001600160a01b03811660009081526005602052604090205460ff1615611d945760076000611d5e612a19565b6001600160a01b03908116825260208083019390935260409182016000908120918516815292529020805460ff19169055611ddb565b600160066000611da2612a19565b6001600160a01b03908116825260208083019390935260409182016000908120918616815292529020805460ff19169115159190911790555b611de3612a19565b6001600160a01b0316816001600160a01b03167ff4caeb2d6ca8932a215a353d0703c326ec2d81fc68170f320eb2ab49e9df61f960405160405180910390a350565b60038054604080516020601f60026000196101006001881615020190951694909404938401819004810282018101909252828152606093909290918301828280156110005780601f1061106857610100808354040283529160200191611000565b611eab611e91612a19565b84848460405180602001604052806000815250600161326b565b505050565b60006001600160a01b038316611ef75760405162461bcd60e51b8152600401808060200182810382526024815260200180613c3a6024913960400191505060405180910390fd5b6000611f01612a19565b9050611f2f818286866040518060200160405280600081525060405180602001604052806000815250612b09565b611f5b818286866040518060200160405280600081525060405180602001604052806000815250612d36565b6110d68182868660405180602001604052806000815250604051806020016040528060008152506000612fe6565b6103e881565b601154600114611fdb576040805162461bcd60e51b8152602060048201526012602482015271131a5c5d5a5914ddd85c0e881313d0d2d15160721b604482015290519081900360640190fd5b6000601155600b54600c54600d54604080516370a0823160e01b815230600482015290516001600160a01b039485169490931692612084928592879261207f926001600160701b03169185916370a0823191602480820192602092909190829003018186803b15801561204d57600080fd5b505afa158015612061573d6000803e3d6000fd5b505050506040513d602081101561207757600080fd5b505190612817565b61262b565b6120f8818461207f600d600e9054906101000a90046001600160701b03166001600160701b0316856001600160a01b03166370a08231306040518263ffffffff1660e01b815260040180826001600160a01b0316815260200191505060206040518083038186803b15801561204d57600080fd5b5050600160115550565b600a546001600160a01b031681565b600c546001600160a01b031681565b6000816001600160a01b0316836001600160a01b0316148061218b57506001600160a01b03831660009081526005602052604090205460ff16801561218b57506001600160a01b0380831660009081526007602090815260408083209387168352929052205460ff16155b806121bb57506001600160a01b0380831660009081526006602090815260408083209387168352929052205460ff165b9392505050565b6001600160a01b03918216600090815260086020908152604080832093909416825291909152205490565b6121f5612a19565b6009546001600160a01b03908116911614612257576040805162461bcd60e51b815260206004820181905260248201527f4f776e61626c653a2063616c6c6572206973206e6f7420746865206f776e6572604482015290519081900360640190fd5b6001600160a01b03811661229c5760405162461bcd60e51b8152600401808060200182810382526026815260200180613aa66026913960400191505060405180910390fd5b6009546040516001600160a01b038084169216907f8be0079c531659141344cd1fd0a4f28419497f9722a3daafe3b4186f6b6457e090600090a3600980546001600160a01b0319166001600160a01b0392909216919091179055565b612300612a19565b6001600160a01b0316816001600160a01b031614156123505760405162461bcd60e51b8152600401808060200182810382526021815260200180613b646021913960400191505060405180910390fd5b6001600160a01b03811660009081526005602052604090205460ff16156123bc5760016007600061237f612a19565b6001600160a01b03908116825260208083019390935260409182016000908120918616815292529020805460ff19169115159190911790556123fa565b600660006123c8612a19565b6001600160a01b03908116825260208083019390935260409182016000908120918516815292529020805460ff191690555b612402612a19565b6001600160a01b0316816001600160a01b03167f50546e66e5f44d728365dc3908c63bc5cfeeab470722c1677e3073a6ac294aa160405160405180910390a350565b61245561244f612a19565b85612120565b6124905760405162461bcd60e51b815260040180806020018281038252602c815260200180613c5e602c913960400191505060405180910390fd5b61249c84848484613740565b50505050565b6124c46124ad612a19565b838360405180602001604052806000815250613740565b5050565b601154600114612514576040805162461bcd60e51b8152602060048201526012602482015271131a5c5d5a5914ddd85c0e881313d0d2d15160721b604482015290519081900360640190fd5b6000601155600b54604080516370a0823160e01b81523060048201529051612624926001600160a01b0316916370a08231916024808301926020929190829003018186803b15801561256557600080fd5b505afa158015612579573d6000803e3d6000fd5b505050506040513d602081101561258f57600080fd5b5051600c54604080516370a0823160e01b815230600482015290516001600160a01b03909216916370a0823191602480820192602092909190829003018186803b1580156125dc57600080fd5b505afa1580156125f0573d6000803e3d6000fd5b505050506040513d602081101561260657600080fd5b5051600d546001600160701b0380821691600160701b900416612859565b6001601155565b604080518082018252601981527f7472616e7366657228616464726573732c75696e74323536290000000000000060209182015281516001600160a01b0385811660248301526044808301869052845180840390910181526064909201845291810180516001600160e01b031663a9059cbb60e01b1781529251815160009460609489169392918291908083835b602083106126d85780518252601f1990920191602091820191016126b9565b6001836020036101000a0380198251168184511680821785525050505050509050019150506000604051808303816000865af19150503d806000811461273a576040519150601f19603f3d011682016040523d82523d6000602084013e61273f565b606091505b509150915081801561276d57508051158061276d575080806020019051602081101561276a57600080fd5b50515b61136a576040805162461bcd60e51b815260206004820152601b60248201527f4c6971756964537761703a205452414e534645525f4641494c45440000000000604482015290519081900360640190fd5b6000826127cd575060006110dc565b828202828482816127da57fe5b04146121bb5760405162461bcd60e51b8152600401808060200182810382526021815260200180613baa6021913960400191505060405180910390fd5b60006121bb83836040518060400160405280601e81526020017f536166654d6174683a207375627472616374696f6e206f766572666c6f770000815250612f4f565b6001600160701b03841180159061287757506001600160701b038311155b6128bf576040805162461bcd60e51b81526020600482015260146024820152734c6971756964537761703a204f564552464c4f5760601b604482015290519081900360640190fd5b600d5463ffffffff42811691600160e01b900481168203908116158015906128ef57506001600160701b03841615155b801561290357506001600160701b03831615155b1561296e578063ffffffff1661292b8561291c8661397a565b6001600160e01b03169061398c565b600e80546001600160e01b03929092169290920201905563ffffffff81166129568461291c8761397a565b600f80546001600160e01b0392909216929092020190555b600d80546dffffffffffffffffffffffffffff19166001600160701b03888116919091176dffffffffffffffffffffffffffff60701b1916600160701b8883168102919091176001600160e01b0316600160e01b63ffffffff871602179283905560408051848416815291909304909116602082015281517f1c411e9a96e071241c2f21f7726b17ae89e3cab4c78be50e062b03a9fffbbad1929181900390910190a1505050505050565b3390565b6001600160a01b038316612a625760405162461bcd60e51b8152600401808060200182810382526025815260200180613a126025913960400191505060405180910390fd5b6001600160a01b038216612aa75760405162461bcd60e51b8152600401808060200182810382526023815260200180613cfc6023913960400191505060405180910390fd5b6001600160a01b03808416600081815260086020908152604080832094871680845294825291829020859055815185815291517f8c5be1e5ebec7d5bd14f71427d1e84f3dd0314c0f7b2291e5b200ac8c7c3b9259281900390910190a3505050565b6040805163555ddc6560e11b81526001600160a01b03871660048201527f29ddb589b1fb5fc7cf394961c1adf5f8c6454761adf795e67fe149f658abe89560248201529051600091731820a4b7618bde71dce8cdc73aab6c95905fad249163aabbb8ca91604480820192602092909190829003018186803b158015612b8d57600080fd5b505afa158015612ba1573d6000803e3d6000fd5b505050506040513d6020811015612bb757600080fd5b505190506001600160a01b03811615612d2d57806001600160a01b03166375ab97828888888888886040518763ffffffff1660e01b815260040180876001600160a01b03168152602001866001600160a01b03168152602001856001600160a01b031681526020018481526020018060200180602001838103835285818151815260200191508051906020019080838360005b83811015612c62578181015183820152602001612c4a565b50505050905090810190601f168015612c8f5780820380516001836020036101000a031916815260200191505b50838103825284518152845160209182019186019080838360005b83811015612cc2578181015183820152602001612caa565b50505050905090810190601f168015612cef5780820380516001836020036101000a031916815260200191505b5098505050505050505050600060405180830381600087803b158015612d1457600080fd5b505af1158015612d28573d6000803e3d6000fd5b505050505b50505050505050565b612d428686868661249c565b612d7f83604051806060016040528060278152602001613a7f602791396001600160a01b0388166000908152602081905260409020549190612f4f565b6001600160a01b038087166000908152602081905260408082209390935590861681522054612dae90846139b1565b600080866001600160a01b03166001600160a01b0316815260200190815260200160002081905550836001600160a01b0316856001600160a01b0316876001600160a01b03167f06b541ddaa720db2b10a4d0cdac39b8d360425fc073085fac19bc82614677987868686604051808481526020018060200180602001838103835285818151815260200191508051906020019080838360005b83811015612e5f578181015183820152602001612e47565b50505050905090810190601f168015612e8c5780820380516001836020036101000a031916815260200191505b50838103825284518152845160209182019186019080838360005b83811015612ebf578181015183820152602001612ea7565b50505050905090810190601f168015612eec5780820380516001836020036101000a031916815260200191505b509550505050505060405180910390a4836001600160a01b0316856001600160a01b03167fddf252ad1be2c89b69c2b068fc378daa952ba7f163c4a11628f55a4df523b3ef856040518082815260200191505060405180910390a3505050505050565b60008184841115612fde5760405162461bcd60e51b81526004018080602001828103825283818151815260200191508051906020019080838360005b83811015612fa3578181015183820152602001612f8b565b50505050905090810190601f168015612fd05780820380516001836020036101000a031916815260200191505b509250505060405180910390fd5b505050900390565b6040805163555ddc6560e11b81526001600160a01b03871660048201527fb281fc8c12954d22544db45de3159a39272895b169a852b314f9cc762e44c53b60248201529051600091731820a4b7618bde71dce8cdc73aab6c95905fad249163aabbb8ca91604480820192602092909190829003018186803b15801561306a57600080fd5b505afa15801561307e573d6000803e3d6000fd5b505050506040513d602081101561309457600080fd5b505190506001600160a01b0381161561320d57806001600160a01b03166223de298989898989896040518763ffffffff1660e01b815260040180876001600160a01b03168152602001866001600160a01b03168152602001856001600160a01b031681526020018481526020018060200180602001838103835285818151815260200191508051906020019080838360005b8381101561313e578181015183820152602001613126565b50505050905090810190601f16801561316b5780820380516001836020036101000a031916815260200191505b50838103825284518152845160209182019186019080838360005b8381101561319e578181015183820152602001613186565b50505050905090810190601f1680156131cb5780820380516001836020036101000a031916815260200191505b5098505050505050505050600060405180830381600087803b1580156131f057600080fd5b505af1158015613204573d6000803e3d6000fd5b50505050613261565b811561326157613225866001600160a01b0316613a0b565b156132615760405162461bcd60e51b815260040180806020018281038252604d815260200180613bcb604d913960600191505060405180910390fd5b5050505050505050565b6001600160a01b0386166132b05760405162461bcd60e51b8152600401808060200182810382526022815260200180613a376022913960400191505060405180910390fd5b6001600160a01b03851661330b576040805162461bcd60e51b815260206004820181905260248201527f4552433737373a2073656e6420746f20746865207a65726f2061646472657373604482015290519081900360640190fd5b6000613315612a19565b9050613325818888888888612b09565b613333818888888888612d36565b612d2d81888888888888612fe6565b600080600a60009054906101000a90046001600160a01b03166001600160a01b031663017e7e586040518163ffffffff1660e01b815260040160206040518083038186803b15801561339357600080fd5b505afa1580156133a7573d6000803e3d6000fd5b505050506040513d60208110156133bd57600080fd5b50516010546001600160a01b03821615801594509192509061348d5780156134885760006133fa6116cd6001600160701b038881169088166127be565b90506000613407836134a1565b9050808211156134855760006134286134208484612817565b610ee16110f1565b905060006134418361343b8660056127be565b906139b1565b9050600081838161344e57fe5b049050801561348157613481878260405180602001604052806000815250604051806020016040528060008152506134f2565b5050505b50505b613499565b80156134995760006010555b505092915050565b600060038211156134e4575080600160028204015b818110156134de578091506002818285816134cd57fe5b0401816134d657fe5b0490506134b6565b50611850565b811561185057506001919050565b6001600160a01b03841661354d576040805162461bcd60e51b815260206004820181905260248201527f4552433737373a206d696e7420746f20746865207a65726f2061646472657373604482015290519081900360640190fd5b6000613557612a19565b9050613566816000878761249c565b60015461357390856139b1565b6001556001600160a01b03851660009081526020819052604090205461359990856139b1565b6001600160a01b0386166000908152602081905260408120919091556135c6908290878787876001612fe6565b846001600160a01b0316816001600160a01b03167f2fe5be0146f74c5bce36c0b80911af6c7d86ff27e89d5cfa61fc681327954e5d868686604051808481526020018060200180602001838103835285818151815260200191508051906020019080838360005b8381101561364557818101518382015260200161362d565b50505050905090810190601f1680156136725780820380516001836020036101000a031916815260200191505b50838103825284518152845160209182019186019080838360005b838110156136a557818101518382015260200161368d565b50505050905090810190601f1680156136d25780820380516001836020036101000a031916815260200191505b509550505050505060405180910390a36040805185815290516001600160a01b038716916000917fddf252ad1be2c89b69c2b068fc378daa952ba7f163c4a11628f55a4df523b3ef9181900360200190a35050505050565b600081831061373957816121bb565b5090919050565b6001600160a01b0384166137855760405162461bcd60e51b8152600401808060200182810382526022815260200180613b1e6022913960400191505060405180910390fd5b600061378f612a19565b905061379e818660008761249c565b6137ad81866000878787612b09565b6137ea84604051806060016040528060238152602001613cd9602391396001600160a01b0388166000908152602081905260409020549190612f4f565b6001600160a01b0386166000908152602081905260409020556001546138109085612817565b600181905550846001600160a01b0316816001600160a01b03167fa78a9be3a7b862d26933ad85fb11d80ef66b8f972d7cbba06621d583943a4098868686604051808481526020018060200180602001838103835285818151815260200191508051906020019080838360005b8381101561389557818101518382015260200161387d565b50505050905090810190601f1680156138c25780820380516001836020036101000a031916815260200191505b50838103825284518152845160209182019186019080838360005b838110156138f55781810151838201526020016138dd565b50505050905090810190601f1680156139225780820380516001836020036101000a031916815260200191505b509550505050505060405180910390a36040805185815290516000916001600160a01b038816917fddf252ad1be2c89b69c2b068fc378daa952ba7f163c4a11628f55a4df523b3ef9181900360200190a35050505050565b6001600160701b0316600160701b0290565b60006001600160701b0382166001600160e01b038416816139a957fe5b049392505050565b6000828201838110156121bb576040805162461bcd60e51b815260206004820152601b60248201527f536166654d6174683a206164646974696f6e206f766572666c6f770000000000604482015290519081900360640190fd5b3b15159056fe4552433737373a20617070726f76652066726f6d20746865207a65726f20616464726573734552433737373a2073656e642066726f6d20746865207a65726f20616464726573734c6971756964537761703a20494e53554646494349454e545f4f55545055545f414d4f554e544552433737373a207472616e7366657220616d6f756e7420657863656564732062616c616e63654f776e61626c653a206e6577206f776e657220697320746865207a65726f20616464726573734c6971756964537761703a20494e53554646494349454e545f4c49515549444954595f4d494e5445444c6971756964537761703a20494e53554646494349454e545f4c49515549444954595f4255524e45444552433737373a206275726e2066726f6d20746865207a65726f20616464726573734552433737373a20617574686f72697a696e672073656c66206173206f70657261746f724552433737373a207265766f6b696e672073656c66206173206f70657261746f724c6971756964537761703a20494e53554646494349454e545f494e5055545f414d4f554e54536166654d6174683a206d756c7469706c69636174696f6e206f766572666c6f774552433737373a20746f6b656e20726563697069656e7420636f6e747261637420686173206e6f20696d706c656d656e74657220666f7220455243373737546f6b656e73526563697069656e744c6971756964537761703a20494e53554646494349454e545f4c49515549444954594552433737373a207472616e7366657220746f20746865207a65726f20616464726573734552433737373a2063616c6c6572206973206e6f7420616e206f70657261746f7220666f7220686f6c6465724552433737373a207472616e7366657220616d6f756e74206578636565647320616c6c6f77616e63654552433737373a207472616e736665722066726f6d20746865207a65726f20616464726573734552433737373a206275726e20616d6f756e7420657863656564732062616c616e63654552433737373a20617070726f766520746f20746865207a65726f2061646472657373a2646970667358221220daee0a819878097bf1cf9478b26aee38ec5ecec2f1df304cf953993d102d684964736f6c634300060c0033a2646970667358221220d1c78ea9580e65c12ddf6cc75cb18bf5819fa1d048d1b76526d12303c76b5b3164736f6c634300060c0033",
  "immutableReferences": {},
  "source": "pragma solidity >=0.6.12;\r\n//SPDX-License-Identifier: MIT-0\r\nimport './interfaces/ILiquidSwapFactory.sol';\r\nimport './LiquidSwapPair.sol';\r\n\r\ncontract LiquidSwapFactory is ILiquidSwapFactory {\r\n    address public override feeTo;\r\n    address public override feeToSetter;\r\n    address public override migrator;\r\n\r\n    mapping(address => mapping(address => address)) public override getPair;\r\n    address[] public override allPairs;\r\n\r\n    event PairCreated(address indexed token0, address indexed token1, address pair, uint);\r\n\r\n    constructor(address _feeToSetter) public {\r\n        feeToSetter = _feeToSetter;\r\n    }\r\n\r\n    function allPairsLength() external override view returns (uint) {\r\n        return allPairs.length;\r\n    }\r\n\r\n    function pairCodeHash() external pure returns (bytes32) {\r\n        return keccak256(type(LiquidSwapPair).creationCode);\r\n    }\r\n\r\n    function createPair(address tokenA, address tokenB) external override returns (address pair) {\r\n        require(tokenA != tokenB, 'LiquidSwap: IDENTICAL_ADDRESSES');\r\n        (address token0, address token1) = tokenA < tokenB ? (tokenA, tokenB) : (tokenB, tokenA);\r\n        require(token0 != address(0), 'LiquidSwap: ZERO_ADDRESS');\r\n        require(getPair[token0][token1] == address(0), 'LiquidSwap: PAIR_EXISTS'); // single check is sufficient\r\n        bytes memory bytecode = type(LiquidSwapPair).creationCode;\r\n        bytes32 salt = keccak256(abi.encodePacked(token0, token1));\r\n        assembly {\r\n            pair := create2(0, add(bytecode, 32), mload(bytecode), salt)\r\n        }\r\n        LiquidSwapPair(pair).initialize(token0, token1);\r\n        getPair[token0][token1] = pair;\r\n        getPair[token1][token0] = pair; // populate mapping in the reverse direction\r\n        allPairs.push(pair);\r\n        emit PairCreated(token0, token1, pair, allPairs.length);\r\n    }\r\n\r\n    function setFeeTo(address _feeTo) external override {\r\n        require(msg.sender == feeToSetter, 'LiquidSwap: FORBIDDEN');\r\n        feeTo = _feeTo;\r\n    }\r\n\r\n    function setMigrator(address _migrator) external override {\r\n        require(msg.sender == feeToSetter, 'LiquidSwap: FORBIDDEN');\r\n        migrator = _migrator;\r\n    }\r\n\r\n    function setFeeToSetter(address _feeToSetter) external override {\r\n        require(msg.sender == feeToSetter, 'LiquidSwap: FORBIDDEN');\r\n        feeToSetter = _feeToSetter;\r\n    }\r\n\r\n}\r\n",
  "sourcePath": "C:/Users/evilg/OneDrive/Documents/GitHub/liquidswap-core/contracts/LiquidSwapFactory.sol",
  "compiler": {
    "name": "solc",
    "version": "0.6.12+commit.27d51765.Emscripten.clang"
  },
  "schemaVersion": "3.2.5",
  "updatedAt": "2020-09-21T03:26:24.237Z",
  "devdoc": {
    "kind": "dev",
    "methods": {},
    "version": 1
  },
  "userdoc": {
    "kind": "user",
    "methods": {},
    "version": 1
  }
}