{
  "contractName": "LiquidSwapToken",
  "abi": [
    {
      "inputs": [
        {
          "internalType": "string",
          "name": "_name",
          "type": "string"
        },
        {
          "internalType": "string",
          "name": "_symbol",
          "type": "string"
        },
        {
          "internalType": "address[]",
          "name": "_defaultOperators",
          "type": "address[]"
        }
      ],
      "stateMutability": "nonpayable",
      "type": "constructor"
    },
    {
      "anonymous": false,
      "inputs": [
        {
          "indexed": true,
          "internalType": "address",
          "name": "owner",
          "type": "address"
        },
        {
          "indexed": true,
          "internalType": "address",
          "name": "spender",
          "type": "address"
        },
        {
          "indexed": false,
          "internalType": "uint256",
          "name": "value",
          "type": "uint256"
        }
      ],
      "name": "Approval",
      "type": "event"
    },
    {
      "anonymous": false,
      "inputs": [
        {
          "indexed": true,
          "internalType": "address",
          "name": "operator",
          "type": "address"
        },
        {
          "indexed": true,
          "internalType": "address",
          "name": "tokenHolder",
          "type": "address"
        }
      ],
      "name": "AuthorizedOperator",
      "type": "event"
    },
    {
      "anonymous": false,
      "inputs": [
        {
          "indexed": true,
          "internalType": "address",
          "name": "operator",
          "type": "address"
        },
        {
          "indexed": true,
          "internalType": "address",
          "name": "from",
          "type": "address"
        },
        {
          "indexed": false,
          "internalType": "uint256",
          "name": "amount",
          "type": "uint256"
        },
        {
          "indexed": false,
          "internalType": "bytes",
          "name": "data",
          "type": "bytes"
        },
        {
          "indexed": false,
          "internalType": "bytes",
          "name": "operatorData",
          "type": "bytes"
        }
      ],
      "name": "Burned",
      "type": "event"
    },
    {
      "anonymous": false,
      "inputs": [
        {
          "indexed": true,
          "internalType": "address",
          "name": "operator",
          "type": "address"
        },
        {
          "indexed": true,
          "internalType": "address",
          "name": "to",
          "type": "address"
        },
        {
          "indexed": false,
          "internalType": "uint256",
          "name": "amount",
          "type": "uint256"
        },
        {
          "indexed": false,
          "internalType": "bytes",
          "name": "data",
          "type": "bytes"
        },
        {
          "indexed": false,
          "internalType": "bytes",
          "name": "operatorData",
          "type": "bytes"
        }
      ],
      "name": "Minted",
      "type": "event"
    },
    {
      "anonymous": false,
      "inputs": [
        {
          "indexed": true,
          "internalType": "address",
          "name": "previousOwner",
          "type": "address"
        },
        {
          "indexed": true,
          "internalType": "address",
          "name": "newOwner",
          "type": "address"
        }
      ],
      "name": "OwnershipTransferred",
      "type": "event"
    },
    {
      "anonymous": false,
      "inputs": [
        {
          "indexed": true,
          "internalType": "address",
          "name": "operator",
          "type": "address"
        },
        {
          "indexed": true,
          "internalType": "address",
          "name": "tokenHolder",
          "type": "address"
        }
      ],
      "name": "RevokedOperator",
      "type": "event"
    },
    {
      "anonymous": false,
      "inputs": [
        {
          "indexed": true,
          "internalType": "address",
          "name": "operator",
          "type": "address"
        },
        {
          "indexed": true,
          "internalType": "address",
          "name": "from",
          "type": "address"
        },
        {
          "indexed": true,
          "internalType": "address",
          "name": "to",
          "type": "address"
        },
        {
          "indexed": false,
          "internalType": "uint256",
          "name": "amount",
          "type": "uint256"
        },
        {
          "indexed": false,
          "internalType": "bytes",
          "name": "data",
          "type": "bytes"
        },
        {
          "indexed": false,
          "internalType": "bytes",
          "name": "operatorData",
          "type": "bytes"
        }
      ],
      "name": "Sent",
      "type": "event"
    },
    {
      "anonymous": false,
      "inputs": [
        {
          "indexed": true,
          "internalType": "address",
          "name": "from",
          "type": "address"
        },
        {
          "indexed": true,
          "internalType": "address",
          "name": "to",
          "type": "address"
        },
        {
          "indexed": false,
          "internalType": "uint256",
          "name": "value",
          "type": "uint256"
        }
      ],
      "name": "Transfer",
      "type": "event"
    },
    {
      "inputs": [
        {
          "internalType": "address",
          "name": "holder",
          "type": "address"
        },
        {
          "internalType": "address",
          "name": "spender",
          "type": "address"
        }
      ],
      "name": "allowance",
      "outputs": [
        {
          "internalType": "uint256",
          "name": "",
          "type": "uint256"
        }
      ],
      "stateMutability": "view",
      "type": "function"
    },
    {
      "inputs": [
        {
          "internalType": "address",
          "name": "spender",
          "type": "address"
        },
        {
          "internalType": "uint256",
          "name": "value",
          "type": "uint256"
        }
      ],
      "name": "approve",
      "outputs": [
        {
          "internalType": "bool",
          "name": "",
          "type": "bool"
        }
      ],
      "stateMutability": "nonpayable",
      "type": "function"
    },
    {
      "inputs": [
        {
          "internalType": "address",
          "name": "operator",
          "type": "address"
        }
      ],
      "name": "authorizeOperator",
      "outputs": [],
      "stateMutability": "nonpayable",
      "type": "function"
    },
    {
      "inputs": [
        {
          "internalType": "address",
          "name": "tokenHolder",
          "type": "address"
        }
      ],
      "name": "balanceOf",
      "outputs": [
        {
          "internalType": "uint256",
          "name": "",
          "type": "uint256"
        }
      ],
      "stateMutability": "view",
      "type": "function"
    },
    {
      "inputs": [],
      "name": "decimals",
      "outputs": [
        {
          "internalType": "uint8",
          "name": "",
          "type": "uint8"
        }
      ],
      "stateMutability": "pure",
      "type": "function"
    },
    {
      "inputs": [],
      "name": "defaultOperators",
      "outputs": [
        {
          "internalType": "address[]",
          "name": "",
          "type": "address[]"
        }
      ],
      "stateMutability": "view",
      "type": "function"
    },
    {
      "inputs": [],
      "name": "granularity",
      "outputs": [
        {
          "internalType": "uint256",
          "name": "",
          "type": "uint256"
        }
      ],
      "stateMutability": "view",
      "type": "function"
    },
    {
      "inputs": [
        {
          "internalType": "address",
          "name": "operator",
          "type": "address"
        },
        {
          "internalType": "address",
          "name": "tokenHolder",
          "type": "address"
        }
      ],
      "name": "isOperatorFor",
      "outputs": [
        {
          "internalType": "bool",
          "name": "",
          "type": "bool"
        }
      ],
      "stateMutability": "view",
      "type": "function"
    },
    {
      "inputs": [],
      "name": "name",
      "outputs": [
        {
          "internalType": "string",
          "name": "",
          "type": "string"
        }
      ],
      "stateMutability": "view",
      "type": "function"
    },
    {
      "inputs": [
        {
          "internalType": "address",
          "name": "account",
          "type": "address"
        },
        {
          "internalType": "uint256",
          "name": "amount",
          "type": "uint256"
        },
        {
          "internalType": "bytes",
          "name": "data",
          "type": "bytes"
        },
        {
          "internalType": "bytes",
          "name": "operatorData",
          "type": "bytes"
        }
      ],
      "name": "operatorBurn",
      "outputs": [],
      "stateMutability": "nonpayable",
      "type": "function"
    },
    {
      "inputs": [
        {
          "internalType": "address",
          "name": "sender",
          "type": "address"
        },
        {
          "internalType": "address",
          "name": "recipient",
          "type": "address"
        },
        {
          "internalType": "uint256",
          "name": "amount",
          "type": "uint256"
        },
        {
          "internalType": "bytes",
          "name": "data",
          "type": "bytes"
        },
        {
          "internalType": "bytes",
          "name": "operatorData",
          "type": "bytes"
        }
      ],
      "name": "operatorSend",
      "outputs": [],
      "stateMutability": "nonpayable",
      "type": "function"
    },
    {
      "inputs": [],
      "name": "owner",
      "outputs": [
        {
          "internalType": "address",
          "name": "",
          "type": "address"
        }
      ],
      "stateMutability": "view",
      "type": "function"
    },
    {
      "inputs": [],
      "name": "renounceOwnership",
      "outputs": [],
      "stateMutability": "nonpayable",
      "type": "function"
    },
    {
      "inputs": [
        {
          "internalType": "address",
          "name": "operator",
          "type": "address"
        }
      ],
      "name": "revokeOperator",
      "outputs": [],
      "stateMutability": "nonpayable",
      "type": "function"
    },
    {
      "inputs": [
        {
          "internalType": "address",
          "name": "recipient",
          "type": "address"
        },
        {
          "internalType": "uint256",
          "name": "amount",
          "type": "uint256"
        },
        {
          "internalType": "bytes",
          "name": "data",
          "type": "bytes"
        }
      ],
      "name": "send",
      "outputs": [],
      "stateMutability": "nonpayable",
      "type": "function"
    },
    {
      "inputs": [],
      "name": "symbol",
      "outputs": [
        {
          "internalType": "string",
          "name": "",
          "type": "string"
        }
      ],
      "stateMutability": "view",
      "type": "function"
    },
    {
      "inputs": [],
      "name": "totalSupply",
      "outputs": [
        {
          "internalType": "uint256",
          "name": "",
          "type": "uint256"
        }
      ],
      "stateMutability": "view",
      "type": "function"
    },
    {
      "inputs": [
        {
          "internalType": "address",
          "name": "recipient",
          "type": "address"
        },
        {
          "internalType": "uint256",
          "name": "amount",
          "type": "uint256"
        }
      ],
      "name": "transfer",
      "outputs": [
        {
          "internalType": "bool",
          "name": "",
          "type": "bool"
        }
      ],
      "stateMutability": "nonpayable",
      "type": "function"
    },
    {
      "inputs": [
        {
          "internalType": "address",
          "name": "holder",
          "type": "address"
        },
        {
          "internalType": "address",
          "name": "recipient",
          "type": "address"
        },
        {
          "internalType": "uint256",
          "name": "amount",
          "type": "uint256"
        }
      ],
      "name": "transferFrom",
      "outputs": [
        {
          "internalType": "bool",
          "name": "",
          "type": "bool"
        }
      ],
      "stateMutability": "nonpayable",
      "type": "function"
    },
    {
      "inputs": [
        {
          "internalType": "address",
          "name": "newOwner",
          "type": "address"
        }
      ],
      "name": "transferOwnership",
      "outputs": [],
      "stateMutability": "nonpayable",
      "type": "function"
    },
    {
      "inputs": [
        {
          "internalType": "address",
          "name": "_to",
          "type": "address"
        },
        {
          "internalType": "uint256",
          "name": "_amount",
          "type": "uint256"
        }
      ],
      "name": "mint",
      "outputs": [],
      "stateMutability": "nonpayable",
      "type": "function"
    },
    {
      "inputs": [
        {
          "internalType": "address",
          "name": "_from",
          "type": "address"
        },
        {
          "internalType": "uint256",
          "name": "_amount",
          "type": "uint256"
        }
      ],
      "name": "burn",
      "outputs": [],
      "stateMutability": "nonpayable",
      "type": "function"
    },
    {
      "inputs": [
        {
          "internalType": "uint256",
          "name": "amount",
          "type": "uint256"
        },
        {
          "internalType": "bytes",
          "name": "data",
          "type": "bytes"
        }
      ],
      "name": "burn",
      "outputs": [],
      "stateMutability": "nonpayable",
      "type": "function"
    }
  ],
  "bytecode": "0x60806040523480156200001157600080fd5b50604051620029f2380380620029f2833981810160405260608110156200003757600080fd5b81019080805160405193929190846401000000008211156200005857600080fd5b9083019060208201858111156200006e57600080fd5b82516401000000008111828201881017156200008957600080fd5b82525081516020918201929091019080838360005b83811015620000b85781810151838201526020016200009e565b50505050905090810190601f168015620000e65780820380516001836020036101000a031916815260200191505b50604052602001805160405193929190846401000000008211156200010a57600080fd5b9083019060208201858111156200012057600080fd5b82516401000000008111828201881017156200013b57600080fd5b82525081516020918201929091019080838360005b838110156200016a57818101518382015260200162000150565b50505050905090810190601f168015620001985780820380516001836020036101000a031916815260200191505b5060405260200180516040519392919084640100000000821115620001bc57600080fd5b908301906020820185811115620001d257600080fd5b8251866020820283011164010000000082111715620001f057600080fd5b82525081516020918201928201910280838360005b838110156200021f57818101518382015260200162000205565b5050505090500160405250505082828282600290805190602001906200024792919062000476565b5081516200025d90600390602085019062000476565b50805162000273906004906020840190620004fb565b5060005b600454811015620002d357600160056000600484815481106200029657fe5b6000918252602080832091909101546001600160a01b031683528201929092526040019020805460ff191691151591909117905560010162000277565b50604080516329965a1d60e01b815230600482018190527fac7fbab5f54a3ca8194167523c6753bfeb96a445279294b6125b68cce2177054602483015260448201529051731820a4b7618bde71dce8cdc73aab6c95905fad24916329965a1d91606480830192600092919082900301818387803b1580156200035457600080fd5b505af115801562000369573d6000803e3d6000fd5b5050604080516329965a1d60e01b815230600482018190527faea199e31a596269b42cdafd93407f14436db6e4cad65417994c2eb37381e05a602483015260448201529051731820a4b7618bde71dce8cdc73aab6c95905fad2493506329965a1d9250606480830192600092919082900301818387803b158015620003ed57600080fd5b505af115801562000402573d6000803e3d6000fd5b5050505050505060006200041b6200047260201b60201c565b600980546001600160a01b0319166001600160a01b038316908117909155604051919250906000907f8be0079c531659141344cd1fd0a4f28419497f9722a3daafe3b4186f6b6457e0908290a35050505062000599565b3390565b828054600181600116156101000203166002900490600052602060002090601f016020900481019282601f10620004b957805160ff1916838001178555620004e9565b82800160010185558215620004e9579182015b82811115620004e9578251825591602001919060010190620004cc565b50620004f792915062000561565b5090565b82805482825590600052602060002090810192821562000553579160200282015b828111156200055357825182546001600160a01b0319166001600160a01b039091161782556020909201916001909101906200051c565b50620004f792915062000578565b5b80821115620004f7576000815560010162000562565b5b80821115620004f75780546001600160a01b031916815560010162000579565b61244980620005a96000396000f3fe608060405234801561001057600080fd5b506004361061014d5760003560e01c80638da5cb5b116100c3578063d95b63711161007c578063d95b6371146105e5578063dd62ed3e14610613578063f2fde38b14610641578063fad8b32a14610667578063fc673c4f1461068d578063fe9d9303146107cb5761014d565b80638da5cb5b14610482578063959b8c3f146104a657806395d89b41146104cc5780639bd9bbc6146104d45780639dc29fac1461058d578063a9059cbb146105b95761014d565b8063313ce56711610115578063313ce567146102b757806340c10f19146102d5578063556f0dc71461030357806362ad1b831461030b57806370a0823114610454578063715018a61461047a5761014d565b806306e485381461015257806306fdde03146101aa578063095ea7b31461022757806318160ddd1461026757806323b872dd14610281575b600080fd5b61015a610876565b60408051602080825283518183015283519192839290830191858101910280838360005b8381101561019657818101518382015260200161017e565b505050509050019250505060405180910390f35b6101b26108d8565b6040805160208082528351818301528351919283929083019185019080838360005b838110156101ec5781810151838201526020016101d4565b50505050905090810190601f1680156102195780820380516001836020036101000a031916815260200191505b509250505060405180910390f35b6102536004803603604081101561023d57600080fd5b506001600160a01b038135169060200135610962565b604080519115158252519081900360200190f35b61026f610984565b60408051918252519081900360200190f35b6102536004803603606081101561029757600080fd5b506001600160a01b0381358116916020810135909116906040013561098a565b6102bf610b07565b6040805160ff9092168252519081900360200190f35b610301600480360360408110156102eb57600080fd5b506001600160a01b038135169060200135610b0c565b005b61026f610b92565b610301600480360360a081101561032157600080fd5b6001600160a01b03823581169260208101359091169160408201359190810190608081016060820135600160201b81111561035b57600080fd5b82018360208201111561036d57600080fd5b803590602001918460018302840111600160201b8311171561038e57600080fd5b91908080601f0160208091040260200160405190810160405280939291908181526020018383808284376000920191909152509295949360208101935035915050600160201b8111156103e057600080fd5b8201836020820111156103f257600080fd5b803590602001918460018302840111600160201b8311171561041357600080fd5b91908080601f016020809104026020016040519081016040528093929190818152602001838380828437600092019190915250929550610b97945050505050565b61026f6004803603602081101561046a57600080fd5b50356001600160a01b0316610bf9565b610301610c14565b61048a610cb6565b604080516001600160a01b039092168252519081900360200190f35b610301600480360360208110156104bc57600080fd5b50356001600160a01b0316610cc5565b6101b2610e11565b610301600480360360608110156104ea57600080fd5b6001600160a01b0382351691602081013591810190606081016040820135600160201b81111561051957600080fd5b82018360208201111561052b57600080fd5b803590602001918460018302840111600160201b8311171561054c57600080fd5b91908080601f016020809104026020016040519081016040528093929190818152602001838380828437600092019190915250929550610e72945050505050565b610301600480360360408110156105a357600080fd5b506001600160a01b038135169060200135610e9c565b610253600480360360408110156105cf57600080fd5b506001600160a01b038135169060200135610f1e565b610253600480360360408110156105fb57600080fd5b506001600160a01b0381358116916020013516610ff7565b61026f6004803603604081101561062957600080fd5b506001600160a01b0381358116916020013516611099565b6103016004803603602081101561065757600080fd5b50356001600160a01b03166110c4565b6103016004803603602081101561067d57600080fd5b50356001600160a01b03166111bd565b610301600480360360808110156106a357600080fd5b6001600160a01b0382351691602081013591810190606081016040820135600160201b8111156106d257600080fd5b8201836020820111156106e457600080fd5b803590602001918460018302840111600160201b8311171561070557600080fd5b91908080601f0160208091040260200160405190810160405280939291908181526020018383808284376000920191909152509295949360208101935035915050600160201b81111561075757600080fd5b82018360208201111561076957600080fd5b803590602001918460018302840111600160201b8311171561078a57600080fd5b91908080601f016020809104026020016040519081016040528093929190818152602001838380828437600092019190915250929550611309945050505050565b610301600480360360408110156107e157600080fd5b81359190810190604081016020820135600160201b81111561080257600080fd5b82018360208201111561081457600080fd5b803590602001918460018302840111600160201b8311171561083557600080fd5b91908080601f016020809104026020016040519081016040528093929190818152602001838380828437600092019190915250929550611367945050505050565b606060048054806020026020016040519081016040528092919081815260200182805480156108ce57602002820191906000526020600020905b81546001600160a01b031681526001909101906020018083116108b0575b5050505050905090565b60028054604080516020601f60001961010060018716150201909416859004938401819004810282018101909252828152606093909290918301828280156108ce5780601f10610936576101008083540402835291602001916108ce565b820191906000526020600020905b81548152906001019060200180831161094457509395945050505050565b60008061096d611389565b905061097a81858561138d565b5060019392505050565b60015490565b60006001600160a01b0383166109d15760405162461bcd60e51b815260040180806020018281038252602481526020018061232f6024913960400191505060405180910390fd5b6001600160a01b038416610a165760405162461bcd60e51b81526004018080602001828103825260268152602001806123a86026913960400191505060405180910390fd5b6000610a20611389565b9050610a4e818686866040518060200160405280600081525060405180602001604052806000815250611479565b610a7a8186868660405180602001604052806000815250604051806020016040528060008152506116a6565b610ace8582610ac98660405180606001604052806029815260200161237f602991396001600160a01b03808c166000908152600860209081526040808320938b168352929052205491906118bf565b61138d565b610afc8186868660405180602001604052806000815250604051806020016040528060008152506000611956565b506001949350505050565b601290565b610b14611389565b6009546001600160a01b03908116911614610b64576040805162461bcd60e51b815260206004820181905260248201526000805160206122c2833981519152604482015290519081900360640190fd5b610b8e82826040518060200160405280600081525060405180602001604052806000815250611bdb565b5050565b600190565b610ba8610ba2611389565b86610ff7565b610be35760405162461bcd60e51b815260040180806020018281038252602c815260200180612353602c913960400191505060405180910390fd5b610bf285858585856001611e13565b5050505050565b6001600160a01b031660009081526020819052604090205490565b610c1c611389565b6009546001600160a01b03908116911614610c6c576040805162461bcd60e51b815260206004820181905260248201526000805160206122c2833981519152604482015290519081900360640190fd5b6009546040516000916001600160a01b0316907f8be0079c531659141344cd1fd0a4f28419497f9722a3daafe3b4186f6b6457e0908390a3600980546001600160a01b0319169055565b6009546001600160a01b031690565b806001600160a01b0316610cd7611389565b6001600160a01b03161415610d1d5760405162461bcd60e51b815260040180806020018281038252602481526020018061227d6024913960400191505060405180910390fd5b6001600160a01b03811660009081526005602052604090205460ff1615610d805760076000610d4a611389565b6001600160a01b03908116825260208083019390935260409182016000908120918516815292529020805460ff19169055610dc7565b600160066000610d8e611389565b6001600160a01b03908116825260208083019390935260409182016000908120918616815292529020805460ff19169115159190911790555b610dcf611389565b6001600160a01b0316816001600160a01b03167ff4caeb2d6ca8932a215a353d0703c326ec2d81fc68170f320eb2ab49e9df61f960405160405180910390a350565b60038054604080516020601f60026000196101006001881615020190951694909404938401819004810282018101909252828152606093909290918301828280156108ce5780601f10610936576101008083540402835291602001916108ce565b610e97610e7d611389565b848484604051806020016040528060008152506001611e13565b505050565b610ea4611389565b6009546001600160a01b03908116911614610ef4576040805162461bcd60e51b815260206004820181905260248201526000805160206122c2833981519152604482015290519081900360640190fd5b610b8e82826040518060200160405280600081525060405180602001604052806000815250611eea565b60006001600160a01b038316610f655760405162461bcd60e51b815260040180806020018281038252602481526020018061232f6024913960400191505060405180910390fd5b6000610f6f611389565b9050610f9d818286866040518060200160405280600081525060405180602001604052806000815250611479565b610fc98182868660405180602001604052806000815250604051806020016040528060008152506116a6565b61097a8182868660405180602001604052806000815250604051806020016040528060008152506000611956565b6000816001600160a01b0316836001600160a01b0316148061106257506001600160a01b03831660009081526005602052604090205460ff16801561106257506001600160a01b0380831660009081526007602090815260408083209387168352929052205460ff16155b8061109257506001600160a01b0380831660009081526006602090815260408083209387168352929052205460ff165b9392505050565b6001600160a01b03918216600090815260086020908152604080832093909416825291909152205490565b6110cc611389565b6009546001600160a01b0390811691161461111c576040805162461bcd60e51b815260206004820181905260248201526000805160206122c2833981519152604482015290519081900360640190fd5b6001600160a01b0381166111615760405162461bcd60e51b81526004018080602001828103825260268152602001806122356026913960400191505060405180910390fd5b6009546040516001600160a01b038084169216907f8be0079c531659141344cd1fd0a4f28419497f9722a3daafe3b4186f6b6457e090600090a3600980546001600160a01b0319166001600160a01b0392909216919091179055565b6111c5611389565b6001600160a01b0316816001600160a01b031614156112155760405162461bcd60e51b81526004018080602001828103825260218152602001806122a16021913960400191505060405180910390fd5b6001600160a01b03811660009081526005602052604090205460ff161561128157600160076000611244611389565b6001600160a01b03908116825260208083019390935260409182016000908120918616815292529020805460ff19169115159190911790556112bf565b6006600061128d611389565b6001600160a01b03908116825260208083019390935260409182016000908120918516815292529020805460ff191690555b6112c7611389565b6001600160a01b0316816001600160a01b03167f50546e66e5f44d728365dc3908c63bc5cfeeab470722c1677e3073a6ac294aa160405160405180910390a350565b61131a611314611389565b85610ff7565b6113555760405162461bcd60e51b815260040180806020018281038252602c815260200180612353602c913960400191505060405180910390fd5b61136184848484611eea565b50505050565b610b8e611372611389565b838360405180602001604052806000815250611eea565b3390565b6001600160a01b0383166113d25760405162461bcd60e51b81526004018080602001828103825260258152602001806121c76025913960400191505060405180910390fd5b6001600160a01b0382166114175760405162461bcd60e51b81526004018080602001828103825260238152602001806123f16023913960400191505060405180910390fd5b6001600160a01b03808416600081815260086020908152604080832094871680845294825291829020859055815185815291517f8c5be1e5ebec7d5bd14f71427d1e84f3dd0314c0f7b2291e5b200ac8c7c3b9259281900390910190a3505050565b6040805163555ddc6560e11b81526001600160a01b03871660048201527f29ddb589b1fb5fc7cf394961c1adf5f8c6454761adf795e67fe149f658abe89560248201529051600091731820a4b7618bde71dce8cdc73aab6c95905fad249163aabbb8ca91604480820192602092909190829003018186803b1580156114fd57600080fd5b505afa158015611511573d6000803e3d6000fd5b505050506040513d602081101561152757600080fd5b505190506001600160a01b0381161561169d57806001600160a01b03166375ab97828888888888886040518763ffffffff1660e01b815260040180876001600160a01b03168152602001866001600160a01b03168152602001856001600160a01b031681526020018481526020018060200180602001838103835285818151815260200191508051906020019080838360005b838110156115d25781810151838201526020016115ba565b50505050905090810190601f1680156115ff5780820380516001836020036101000a031916815260200191505b50838103825284518152845160209182019186019080838360005b8381101561163257818101518382015260200161161a565b50505050905090810190601f16801561165f5780820380516001836020036101000a031916815260200191505b5098505050505050505050600060405180830381600087803b15801561168457600080fd5b505af1158015611698573d6000803e3d6000fd5b505050505b50505050505050565b6116b286868686611361565b6116ef8360405180606001604052806027815260200161220e602791396001600160a01b03881660009081526020819052604090205491906118bf565b6001600160a01b03808716600090815260208190526040808220939093559086168152205461171e9084612124565b600080866001600160a01b03166001600160a01b0316815260200190815260200160002081905550836001600160a01b0316856001600160a01b0316876001600160a01b03167f06b541ddaa720db2b10a4d0cdac39b8d360425fc073085fac19bc82614677987868686604051808481526020018060200180602001838103835285818151815260200191508051906020019080838360005b838110156117cf5781810151838201526020016117b7565b50505050905090810190601f1680156117fc5780820380516001836020036101000a031916815260200191505b50838103825284518152845160209182019186019080838360005b8381101561182f578181015183820152602001611817565b50505050905090810190601f16801561185c5780820380516001836020036101000a031916815260200191505b509550505050505060405180910390a4836001600160a01b0316856001600160a01b03167fddf252ad1be2c89b69c2b068fc378daa952ba7f163c4a11628f55a4df523b3ef856040518082815260200191505060405180910390a3505050505050565b6000818484111561194e5760405162461bcd60e51b81526004018080602001828103825283818151815260200191508051906020019080838360005b838110156119135781810151838201526020016118fb565b50505050905090810190601f1680156119405780820380516001836020036101000a031916815260200191505b509250505060405180910390fd5b505050900390565b6040805163555ddc6560e11b81526001600160a01b03871660048201527fb281fc8c12954d22544db45de3159a39272895b169a852b314f9cc762e44c53b60248201529051600091731820a4b7618bde71dce8cdc73aab6c95905fad249163aabbb8ca91604480820192602092909190829003018186803b1580156119da57600080fd5b505afa1580156119ee573d6000803e3d6000fd5b505050506040513d6020811015611a0457600080fd5b505190506001600160a01b03811615611b7d57806001600160a01b03166223de298989898989896040518763ffffffff1660e01b815260040180876001600160a01b03168152602001866001600160a01b03168152602001856001600160a01b031681526020018481526020018060200180602001838103835285818151815260200191508051906020019080838360005b83811015611aae578181015183820152602001611a96565b50505050905090810190601f168015611adb5780820380516001836020036101000a031916815260200191505b50838103825284518152845160209182019186019080838360005b83811015611b0e578181015183820152602001611af6565b50505050905090810190601f168015611b3b5780820380516001836020036101000a031916815260200191505b5098505050505050505050600060405180830381600087803b158015611b6057600080fd5b505af1158015611b74573d6000803e3d6000fd5b50505050611bd1565b8115611bd157611b95866001600160a01b031661217e565b15611bd15760405162461bcd60e51b815260040180806020018281038252604d8152602001806122e2604d913960600191505060405180910390fd5b5050505050505050565b6001600160a01b038416611c36576040805162461bcd60e51b815260206004820181905260248201527f4552433737373a206d696e7420746f20746865207a65726f2061646472657373604482015290519081900360640190fd5b6000611c40611389565b9050611c4f8160008787611361565b600154611c5c9085612124565b6001556001600160a01b038516600090815260208190526040902054611c829085612124565b6001600160a01b038616600090815260208190526040812091909155611caf908290878787876001611956565b846001600160a01b0316816001600160a01b03167f2fe5be0146f74c5bce36c0b80911af6c7d86ff27e89d5cfa61fc681327954e5d868686604051808481526020018060200180602001838103835285818151815260200191508051906020019080838360005b83811015611d2e578181015183820152602001611d16565b50505050905090810190601f168015611d5b5780820380516001836020036101000a031916815260200191505b50838103825284518152845160209182019186019080838360005b83811015611d8e578181015183820152602001611d76565b50505050905090810190601f168015611dbb5780820380516001836020036101000a031916815260200191505b509550505050505060405180910390a36040805185815290516001600160a01b038716916000917fddf252ad1be2c89b69c2b068fc378daa952ba7f163c4a11628f55a4df523b3ef9181900360200190a35050505050565b6001600160a01b038616611e585760405162461bcd60e51b81526004018080602001828103825260228152602001806121ec6022913960400191505060405180910390fd5b6001600160a01b038516611eb3576040805162461bcd60e51b815260206004820181905260248201527f4552433737373a2073656e6420746f20746865207a65726f2061646472657373604482015290519081900360640190fd5b6000611ebd611389565b9050611ecd818888888888611479565b611edb8188888888886116a6565b61169d81888888888888611956565b6001600160a01b038416611f2f5760405162461bcd60e51b815260040180806020018281038252602281526020018061225b6022913960400191505060405180910390fd5b6000611f39611389565b9050611f488186600087611361565b611f5781866000878787611479565b611f94846040518060600160405280602381526020016123ce602391396001600160a01b03881660009081526020819052604090205491906118bf565b6001600160a01b038616600090815260208190526040902055600154611fba9085612184565b600181905550846001600160a01b0316816001600160a01b03167fa78a9be3a7b862d26933ad85fb11d80ef66b8f972d7cbba06621d583943a4098868686604051808481526020018060200180602001838103835285818151815260200191508051906020019080838360005b8381101561203f578181015183820152602001612027565b50505050905090810190601f16801561206c5780820380516001836020036101000a031916815260200191505b50838103825284518152845160209182019186019080838360005b8381101561209f578181015183820152602001612087565b50505050905090810190601f1680156120cc5780820380516001836020036101000a031916815260200191505b509550505050505060405180910390a36040805185815290516000916001600160a01b038816917fddf252ad1be2c89b69c2b068fc378daa952ba7f163c4a11628f55a4df523b3ef9181900360200190a35050505050565b600082820183811015611092576040805162461bcd60e51b815260206004820152601b60248201527f536166654d6174683a206164646974696f6e206f766572666c6f770000000000604482015290519081900360640190fd5b3b151590565b600061109283836040518060400160405280601e81526020017f536166654d6174683a207375627472616374696f6e206f766572666c6f7700008152506118bf56fe4552433737373a20617070726f76652066726f6d20746865207a65726f20616464726573734552433737373a2073656e642066726f6d20746865207a65726f20616464726573734552433737373a207472616e7366657220616d6f756e7420657863656564732062616c616e63654f776e61626c653a206e6577206f776e657220697320746865207a65726f20616464726573734552433737373a206275726e2066726f6d20746865207a65726f20616464726573734552433737373a20617574686f72697a696e672073656c66206173206f70657261746f724552433737373a207265766f6b696e672073656c66206173206f70657261746f724f776e61626c653a2063616c6c6572206973206e6f7420746865206f776e65724552433737373a20746f6b656e20726563697069656e7420636f6e747261637420686173206e6f20696d706c656d656e74657220666f7220455243373737546f6b656e73526563697069656e744552433737373a207472616e7366657220746f20746865207a65726f20616464726573734552433737373a2063616c6c6572206973206e6f7420616e206f70657261746f7220666f7220686f6c6465724552433737373a207472616e7366657220616d6f756e74206578636565647320616c6c6f77616e63654552433737373a207472616e736665722066726f6d20746865207a65726f20616464726573734552433737373a206275726e20616d6f756e7420657863656564732062616c616e63654552433737373a20617070726f766520746f20746865207a65726f2061646472657373a2646970667358221220fa6de2d6f50fe9da4cce2c6f5eece33e9015db1df27b20521cd2f427c05568db64736f6c634300060c0033",
  "immutableReferences": {},
  "source": "pragma solidity >=0.6.12;\r\n//SPDX-License-Identifier: MIT-0\r\n\r\nimport \"@openzeppelin/contracts/token/ERC777/ERC777.sol\";\r\nimport \"@openzeppelin/contracts/access/Ownable.sol\";\r\n\r\ncontract LiquidSwapToken is ERC777, Ownable {\r\n    constructor(string memory _name, string memory _symbol, address[] memory _defaultOperators) public\r\n    ERC777(_name, _symbol, _defaultOperators)\r\n    Ownable()\r\n    {}\r\n\r\n    /// @notice Creates `_amount` token to `_to`. Must only be called by the owner (MasterChef).\r\n    function mint(address _to, uint256 _amount) public onlyOwner {\r\n        _mint(_to, _amount, \"\", \"\");\r\n    }\r\n\r\n    function burn(address _from, uint256 _amount) public onlyOwner {\r\n        _burn(_from, _amount, \"\", \"\");\r\n    }\r\n}",
  "sourcePath": "C:/Users/evilg/OneDrive/Documents/GitHub/liquidswap-core/contracts/LiquidSwapToken.sol",
  "compiler": {
    "name": "solc",
    "version": "0.6.12+commit.27d51765.Emscripten.clang"
  },
  "schemaVersion": "3.2.5",
  "updatedAt": "2020-09-21T03:26:24.332Z",
  "devdoc": {
    "kind": "dev",
    "methods": {
      "allowance(address,address)": {
        "details": "See {IERC20-allowance}. Note that operator and allowance concepts are orthogonal: operators may not have allowance, and accounts with allowance may not be operators themselves."
      },
      "approve(address,uint256)": {
        "details": "See {IERC20-approve}. Note that accounts cannot have allowance issued by their operators."
      },
      "authorizeOperator(address)": {
        "details": "See {IERC777-authorizeOperator}."
      },
      "balanceOf(address)": {
        "details": "Returns the amount of tokens owned by an account (`tokenHolder`)."
      },
      "burn(uint256,bytes)": {
        "details": "See {IERC777-burn}. Also emits a {IERC20-Transfer} event for ERC20 compatibility."
      },
      "decimals()": {
        "details": "See {ERC20-decimals}. Always returns 18, as per the [ERC777 EIP](https://eips.ethereum.org/EIPS/eip-777#backward-compatibility)."
      },
      "defaultOperators()": {
        "details": "See {IERC777-defaultOperators}."
      },
      "granularity()": {
        "details": "See {IERC777-granularity}. This implementation always returns `1`."
      },
      "isOperatorFor(address,address)": {
        "details": "See {IERC777-isOperatorFor}."
      },
      "name()": {
        "details": "See {IERC777-name}."
      },
      "operatorBurn(address,uint256,bytes,bytes)": {
        "details": "See {IERC777-operatorBurn}. Emits {Burned} and {IERC20-Transfer} events."
      },
      "operatorSend(address,address,uint256,bytes,bytes)": {
        "details": "See {IERC777-operatorSend}. Emits {Sent} and {IERC20-Transfer} events."
      },
      "owner()": {
        "details": "Returns the address of the current owner."
      },
      "renounceOwnership()": {
        "details": "Leaves the contract without owner. It will not be possible to call `onlyOwner` functions anymore. Can only be called by the current owner. NOTE: Renouncing ownership will leave the contract without an owner, thereby removing any functionality that is only available to the owner."
      },
      "revokeOperator(address)": {
        "details": "See {IERC777-revokeOperator}."
      },
      "send(address,uint256,bytes)": {
        "details": "See {IERC777-send}. Also emits a {IERC20-Transfer} event for ERC20 compatibility."
      },
      "symbol()": {
        "details": "See {IERC777-symbol}."
      },
      "totalSupply()": {
        "details": "See {IERC777-totalSupply}."
      },
      "transfer(address,uint256)": {
        "details": "See {IERC20-transfer}. Unlike `send`, `recipient` is _not_ required to implement the {IERC777Recipient} interface if it is a contract. Also emits a {Sent} event."
      },
      "transferFrom(address,address,uint256)": {
        "details": "See {IERC20-transferFrom}. Note that operator and allowance concepts are orthogonal: operators cannot call `transferFrom` (unless they have allowance), and accounts with allowance cannot call `operatorSend` (unless they are operators). Emits {Sent}, {IERC20-Transfer} and {IERC20-Approval} events."
      },
      "transferOwnership(address)": {
        "details": "Transfers ownership of the contract to a new account (`newOwner`). Can only be called by the current owner."
      }
    },
    "version": 1
  },
  "userdoc": {
    "kind": "user",
    "methods": {
      "mint(address,uint256)": {
        "notice": "Creates `_amount` token to `_to`. Must only be called by the owner (MasterChef)."
      }
    },
    "version": 1
  }
}