{
  "contractName": "LiquidSwapFees",
  "abi": [
    {
      "inputs": [
        {
          "internalType": "uint256",
          "name": "_fee",
          "type": "uint256"
        },
        {
          "internalType": "uint256",
          "name": "_feeMultiplier",
          "type": "uint256"
        },
        {
          "internalType": "uint256",
          "name": "_feeExponent",
          "type": "uint256"
        }
      ],
      "stateMutability": "nonpayable",
      "type": "constructor"
    },
    {
      "anonymous": false,
      "inputs": [
        {
          "indexed": true,
          "internalType": "address",
          "name": "previousOwner",
          "type": "address"
        },
        {
          "indexed": true,
          "internalType": "address",
          "name": "newOwner",
          "type": "address"
        }
      ],
      "name": "OwnershipTransferred",
      "type": "event"
    },
    {
      "inputs": [],
      "name": "fee",
      "outputs": [
        {
          "internalType": "uint256",
          "name": "",
          "type": "uint256"
        }
      ],
      "stateMutability": "view",
      "type": "function"
    },
    {
      "inputs": [],
      "name": "feeExponent",
      "outputs": [
        {
          "internalType": "uint256",
          "name": "",
          "type": "uint256"
        }
      ],
      "stateMutability": "view",
      "type": "function"
    },
    {
      "inputs": [],
      "name": "feeMultiplier",
      "outputs": [
        {
          "internalType": "uint256",
          "name": "",
          "type": "uint256"
        }
      ],
      "stateMutability": "view",
      "type": "function"
    },
    {
      "inputs": [],
      "name": "owner",
      "outputs": [
        {
          "internalType": "address",
          "name": "",
          "type": "address"
        }
      ],
      "stateMutability": "view",
      "type": "function"
    },
    {
      "inputs": [
        {
          "internalType": "address",
          "name": "newOwner",
          "type": "address"
        }
      ],
      "name": "transferOwnership",
      "outputs": [],
      "stateMutability": "nonpayable",
      "type": "function"
    },
    {
      "inputs": [],
      "name": "getFee",
      "outputs": [
        {
          "internalType": "uint256",
          "name": "",
          "type": "uint256"
        }
      ],
      "stateMutability": "view",
      "type": "function"
    },
    {
      "inputs": [],
      "name": "getFeeMultiplier",
      "outputs": [
        {
          "internalType": "uint256",
          "name": "_feeMultiplier",
          "type": "uint256"
        }
      ],
      "stateMutability": "view",
      "type": "function"
    },
    {
      "inputs": [],
      "name": "getFeeExponent",
      "outputs": [
        {
          "internalType": "uint256",
          "name": "_feeExponent",
          "type": "uint256"
        }
      ],
      "stateMutability": "view",
      "type": "function"
    },
    {
      "inputs": [
        {
          "internalType": "uint256",
          "name": "_fee",
          "type": "uint256"
        }
      ],
      "name": "setFee",
      "outputs": [],
      "stateMutability": "nonpayable",
      "type": "function"
    },
    {
      "inputs": [
        {
          "internalType": "uint256",
          "name": "_feeMultiplier",
          "type": "uint256"
        }
      ],
      "name": "setFeeMultiplier",
      "outputs": [],
      "stateMutability": "nonpayable",
      "type": "function"
    },
    {
      "inputs": [
        {
          "internalType": "uint256",
          "name": "_feeExponent",
          "type": "uint256"
        }
      ],
      "name": "setFeeExponent",
      "outputs": [],
      "stateMutability": "nonpayable",
      "type": "function"
    },
    {
      "inputs": [],
      "name": "renounceOwnership",
      "outputs": [],
      "stateMutability": "nonpayable",
      "type": "function"
    }
  ],
  "bytecode": "0x608060405234801561001057600080fd5b506040516106863803806106868339818101604052606081101561003357600080fd5b5080516020820151604090920151909190600061004e6100a9565b600080546001600160a01b0319166001600160a01b0383169081178255604051929350917f8be0079c531659141344cd1fd0a4f28419497f9722a3daafe3b4186f6b6457e0908290a3506001929092556002556003556100ad565b3390565b6105ca806100bc6000396000f3fe608060405234801561001057600080fd5b50600436106100b45760003560e01c80638611af17116100715780638611af171461013c5780638da5cb5b14610144578063ced72f8714610168578063ddca3f4314610170578063e5a70ef714610178578063f2fde38b14610180576100b4565b80631e6a311d146100b957806342acf5eb146100d85780634abbf4c8146100f55780635b274bd11461010f57806369fe0e2d14610117578063715018a614610134575b600080fd5b6100d6600480360360208110156100cf57600080fd5b50356101a6565b005b6100d6600480360360208110156100ee57600080fd5b5035610242565b6100fd6102de565b60408051918252519081900360200190f35b6100fd6102e4565b6100d66004803603602081101561012d57600080fd5b50356102ea565b6100d6610347565b6100fd61037e565b61014c610384565b604080516001600160a01b039092168252519081900360200190f35b6100fd610393565b6100fd610399565b6100fd61039f565b6100d66004803603602081101561019657600080fd5b50356001600160a01b03166103a5565b6101ae61049d565b6000546001600160a01b039081169116146101fe576040805162461bcd60e51b8152602060048201819052602482015260008051602061052b833981519152604482015290519081900360640190fd5b6000811161023d5760405162461bcd60e51b815260040180806020018281038252602681526020018061054b6026913960400191505060405180910390fd5b600255565b61024a61049d565b6000546001600160a01b0390811691161461029a576040805162461bcd60e51b8152602060048201819052602482015260008051602061052b833981519152604482015290519081900360640190fd5b600081116102d95760405162461bcd60e51b81526004018080602001828103825260248152602001806105716024913960400191505060405180910390fd5b600355565b60035481565b60035490565b6102f261049d565b6000546001600160a01b03908116911614610342576040805162461bcd60e51b8152602060048201819052602482015260008051602061052b833981519152604482015290519081900360640190fd5b600155565b60405162461bcd60e51b81526004018080602001828103825260638152602001806104c86063913960800191505060405180910390fd5b60025490565b6000546001600160a01b031690565b60015490565b60015481565b60025481565b6103ad61049d565b6000546001600160a01b039081169116146103fd576040805162461bcd60e51b8152602060048201819052602482015260008051602061052b833981519152604482015290519081900360640190fd5b6001600160a01b0381166104425760405162461bcd60e51b81526004018080602001828103825260268152602001806104a26026913960400191505060405180910390fd5b600080546040516001600160a01b03808516939216917f8be0079c531659141344cd1fd0a4f28419497f9722a3daafe3b4186f6b6457e091a3600080546001600160a01b0319166001600160a01b0392909216919091179055565b339056fe4f776e61626c653a206e6577206f776e657220697320746865207a65726f20616464726573734c697175696453776170466565733a2043616e6e6f742072656e6f756e6365206f776e6572736869702c20736f6d656f6e6520286f7220736f6d657468696e6729206e6565647320746f2061646a75737420746f206d61726b65742076616c7565732e4f776e61626c653a2063616c6c6572206973206e6f7420746865206f776e65724c6971756964537761703a20466565204d756c7469706c696572206d757374206265203e20304c6971756964537761703a20466565204578706f6e656e74206d757374206265203e2030a264697066735822122098a12c23c0a050741d4eb2ff6fcad55fc09a7f551ee6e9127785f9870f86d34864736f6c634300060c0033",
  "immutableReferences": {},
  "source": "//SPDX-License-Identifier: MIT-0\r\npragma solidity >= 0.6.12;\r\n\r\nimport \"@openzeppelin/contracts/access/Ownable.sol\";\r\n\r\ncontract LiquidSwapFees is Ownable {\r\n    uint public fee;\r\n    uint public feeMultiplier;\r\n    uint public feeExponent;\r\n\r\n    constructor(uint _fee, uint _feeMultiplier, uint _feeExponent) public {\r\n        fee = _fee;\r\n        feeMultiplier = _feeMultiplier;\r\n        feeExponent = _feeExponent;\r\n    }\r\n\r\n    function getFee() public view returns(uint){\r\n        return fee;\r\n    }\r\n\r\n    function getFeeMultiplier() public view returns(uint _feeMultiplier){\r\n        return feeMultiplier;\r\n    }\r\n\r\n    function getFeeExponent() public view returns(uint _feeExponent){\r\n        return feeExponent;\r\n    }\r\n\r\n    function setFee(uint _fee) public onlyOwner {\r\n        fee = _fee;\r\n    }\r\n\r\n    function setFeeMultiplier(uint _feeMultiplier) public onlyOwner {\r\n        require(_feeMultiplier > 0, \"LiquidSwap: Fee Multiplier must be > 0\");\r\n        feeMultiplier = _feeMultiplier;\r\n    }\r\n\r\n    function setFeeExponent(uint _feeExponent) public onlyOwner {\r\n        require(_feeExponent > 0, \"LiquidSwap: Fee Exponent must be > 0\");\r\n        feeExponent = _feeExponent;\r\n    }\r\n\r\n    function renounceOwnership() public override {\r\n        revert(\"LiquidSwapFees: Cannot renounce ownership, someone (or something) needs to adjust to market values.\");\r\n    }\r\n}",
  "sourcePath": "C:/Users/evilg/OneDrive/Documents/GitHub/liquidswap-core/contracts/LiquidSwapFees.sol",
  "compiler": {
    "name": "solc",
    "version": "0.6.12+commit.27d51765.Emscripten.clang"
  },
  "schemaVersion": "3.2.5",
  "updatedAt": "2020-09-21T03:26:24.243Z",
  "devdoc": {
    "kind": "dev",
    "methods": {
      "owner()": {
        "details": "Returns the address of the current owner."
      },
      "renounceOwnership()": {
        "details": "Leaves the contract without owner. It will not be possible to call `onlyOwner` functions anymore. Can only be called by the current owner. NOTE: Renouncing ownership will leave the contract without an owner, thereby removing any functionality that is only available to the owner."
      },
      "transferOwnership(address)": {
        "details": "Transfers ownership of the contract to a new account (`newOwner`). Can only be called by the current owner."
      }
    },
    "version": 1
  },
  "userdoc": {
    "kind": "user",
    "methods": {},
    "version": 1
  }
}